:020000040800F2
:10000000005000208D210008D1210008A7430008DE
:10001000D1210008D1210008D121000800000000F2
:10002000000000000000000000000000D1210008D6
:10003000D121000800000000D1210008D1210008D2
:10004000D1210008D1210008D1210008D1210008C8
:10005000D1210008D1210008D1210008D1210008B8
:10006000D1210008D1210008D1210008D1210008A8
:10007000D1210008D1210008D1210008D121000898
:10008000D1210008D1210008D1210008D121000888
:10009000D1210008D1210008D1210008D121000878
:1000A000D1210008D1210008D1210008D121000868
:1000B000D1210008D1210008D1210008D121000858
:1000C000D1210008D1210008D1210008D121000848
:1000D000D1210008D1210008D1210008D121000838
:1000E000D1210008D1210008D12100080000000022
:1000F0000000000000000000000000000000000000
:1001000000000000000000005FF808F110B5054C89
:10011000237833B9044B13B10448AFF300800123B3
:10012000237010BD6C04002000000000CC490008C2
:10013000084B10B51BB108480849AFF300800848C8
:10014000036803B910BD074B002BFBD0BDE810407E
:10015000184700BF00000000CC49000870040020D0
:10016000680400200000000080B400AF0C4BDB6886
:1001700003F08073002B0ED1094A094BDB6843F072
:100180008073D360074B00225A60064A054B1B68F8
:1001900043F001031360BD465DF8047B704700BF68
:1001A000F0ED00E0001000E080B400AF034B5B68AE
:1001B0001846BD465DF8047B704700BF001000E0A4
:1001C00080B582B000AF7860FFF7EEFF03461A46B5
:1001D0007B68D31ADB0FDBB218460837BD4680BDFB
:1001E00080B584B000AF7860FFF7DEFF01460A4BB0
:1001F0001B680A4AA2FB03239B0C7A6802FB03F3E9
:100200000B44FB6000BFF868FFF7DAFF0346002BE2
:10021000F9D11037BD4680BD1400002083DE1B439A
:1002200080B584B000AF7860FFF7BEFF01460A4B8F
:100230001B680A4AA2FB03239B0C7A6802FB03F3A8
:100240000B44FB6000BFF868FFF7BAFF0346002BC2
:10025000F9D11037BD4680BD1400002083DE1B435A
:1002600080B584B000AF78600023FB7309E0FB7BAE
:100270005A1CFA731A467B6813441B78184603F01D
:100280002BF8FB7B7A6813441B78002BEFD11037D7
:10029000BD4680BD80B584B000AF78600023FB739D
:1002A00009E0FB7B5A1CFA731A467B6813441B78DF
:1002B000184603F029F8FB7B7A6813441B78002B5F
:1002C000EFD11037BD4680BD80B588B000AF7860F3
:1002D0000420012100F0CAFE4FF48040012100F00B
:1002E000C5FE1823FB774FF40073BB830323BB7752
:1002F00007F11C031348194600F068F90423FB7743
:100300004FF48063BB8307F11C030E48194600F0CD
:100310005DF97B68FB6000233B830C23FB82002399
:10032000BB8200237B8200233B8207F10C0306483B
:10033000194603F007FC0448012103F01BFD203798
:10034000BD4680BD000801400038014080B588B03E
:1003500000AF78600420012100F088FE4FF40030E7
:10036000012100F0A1FE1823FB770423BB830323A4
:10037000BB7707F11C031348194600F027F9042343
:10038000FB770823BB8307F11C030E48194600F0D6
:100390001DF97B68FB6000233B830C23FB82002359
:1003A000BB8200237B8200233B8207F10C030648BB
:1003B000194603F0C7FB0448012103F0DBFC20379A
:1003C000BD4680BD000801400044004080B483B0B9
:1003D00000AF0346FB71064B1B685A1C04490A60B8
:1003E0000449FA79CA540C37BD465DF8047B70475E
:1003F000880400209404002080B400AF074B1B68E1
:10040000012B05D9054B1B68023B054AD35C00E074
:1004100000231846BD465DF8047B70478804002021
:100420009404002080B500AF04480021C82204F0E5
:1004300097F9034B00221A6080BD00BF940400208E
:100440008804002080B400AF024B1846BD465DF81A
:10045000047B70479404002080B400AF034B1B68FA
:10046000DBB21846BD465DF8047B70478804002067
:1004700080B483B000AF786000BF7B681B889BB2FC
:1004800003F02003002BF8D07B689B889BB2DBB283
:1004900018460C37BD465DF8047B704780B483B0C6
:1004A00000AF7860396000BF7B681B889BB203F0A7
:1004B0008003002BF8D03B689BB2DBB29AB27B681A
:1004C0009A803B6818460C37BD465DF8047B704740
:1004D00080B582B000AF78607B682F4A934208D124
:1004E0000420012100F0FEFD0420002100F0FAFDAF
:1004F0004EE07B68294A934208D10820012100F090
:10050000F1FD0820002100F0EDFD41E07B68244A68
:10051000934208D11020012100F0E4FD10200021B9
:1005200000F0E0FD34E07B681E4A934208D12020B1
:10053000012100F0D7FD2020002100F0D3FD27E0AD
:100540007B68194A934208D14020012100F0CAFD7E
:100550004020002100F0C6FD1AE07B68134A934258
:1005600008D18020012100F0BDFD8020002100F095
:10057000B9FD0DE07B680E4A934209D14FF48070BB
:10058000012100F0AFFD4FF48070002100F0AAFDC2
:100590000837BD4680BD00BF00080140000C014087
:1005A000001001400014014000180140001C0140EF
:1005B0000020014080B500AF0120012100F092FD34
:1005C0000120002100F08EFD80BD00BF80B489B005
:1005D00000AF786039600023FB6100233B6100239A
:1005E000BB610023FB6000237B610023BB603B6891
:1005F000DB7803F00F03FB613B68DB7803F010034B
:10060000002B05D03B689B781A46FB691343FB61BE
:100610003B681B88DBB2002B44D07B681B687B6186
:100620000023BB6138E0BB69012202FA03F3FB60DF
:100630003B681B881A46FB6813403B613A69FB68BC
:100640009A4226D1BB699B00FB60FB680F2202FA2D
:1006500003F3BB60BB68DB437A6913407B61FB68D3
:10066000FA6902FA03F37A6913437B613B68DB782A
:10067000282B05D1BB6901229A407B685A6108E0AA
:100680003B68DB78482B04D1BB6901229A407B6828
:100690001A61BB690133BB61BB69072BC3D97B6896
:1006A0007A691A603B681B88FF2B4AD97B685B68B4
:1006B0007B610023BB613EE0BB6908331A4601231E
:1006C0009340FB603B681B881A46FB6813403B6104
:1006D0003A69FB689A422BD1BB699B00FB60FB68BF
:1006E0000F2202FA03F3BB60BB68DB437A69134055
:1006F0007B61FB68FA6902FA03F37A6913437B6151
:100700003B68DB78282B07D1BB6908331A460123E5
:1007100003FA02F27B685A613B68DB78482B07D109
:10072000BB6908331A46012303FA02F27B681A6197
:10073000BB690133BB61BB69072BBDD97B687A6993
:100740005A602437BD465DF8047B704780B483B09F
:1007500000AF78607B684FF6FF721A807B680222D8
:100760009A707B680422DA700C37BD465DF8047B12
:10077000704700BF80B485B000AF78600B467B80C7
:100780000023FB737B689A687B881340002B02D0A0
:100790000123FB7301E00023FB73FB7B1846143736
:1007A000BD465DF8047B704780B483B000AF7860CD
:1007B0007B689B689BB218460C37BD465DF8047B8E
:1007C000704700BF80B485B000AF78600B467B8077
:1007D0000023FB737B68DA687B881340002B02D010
:1007E0000123FB7301E00023FB73FB7B18461437E6
:1007F000BD465DF8047B704780B483B000AF78607D
:100800007B68DB689BB218460C37BD465DF8047BFD
:10081000704700BF80B483B000AF78600B467B8028
:100820007A887B681A610C37BD465DF8047B704797
:1008300080B483B000AF78600B467B807A887B6899
:100840005A610C37BD465DF8047B704780B483B0B5
:1008500000AF78600B467B8013467B707B78002B63
:1008600003D07A887B681A6102E07A887B685A61D3
:100870000C37BD465DF8047B704700BF80B483B081
:1008800000AF78600B467B807A887B68DA600C3733
:10089000BD465DF8047B704780B485B000AF7860DA
:1008A0000B467B804FF48033FB607B88FA681343F0
:1008B000FB607B68FA689A617A887B689A617B68DA
:1008C000FA689A617B689B69FB607B689B69FB6047
:1008D0001437BD465DF8047B704700BF80B485B017
:1008E00000AF03460A46FB711346BB710023FB6051
:1008F0000C4B1B68FB60FA684FF680731340FB607B
:10090000FB791B01FA681343FB60BB79FA68134358
:10091000FB60044AFB6813601437BD465DF8047B36
:10092000704700BF0000014080B483B000AF0346B1
:10093000FB71044AFB7913600C37BD465DF8047BFC
:10094000704700BF1C00204280B487B000AF7860C1
:100950000B46FB7000233B610023FB6000237B619F
:100960000023BB607B68002B03DA2E4BDB697B61C5
:1009700002E02C4B5B687B617B6803F470231B0CEB
:10098000BB607B689BB23B617B6803F44013B3F5AB
:10099000401F0AD17B6923F070637B61214A214BA0
:1009A0005B6823F07063536021E07B6803F480137D
:1009B000002B0ED0BB68032202FA03F3FB60FB6836
:1009C000DB437A6913407B617B6943F070637B6131
:1009D0000DE07B685B0D1B011A463B699340DB43CE
:1009E0007A6913407B617B6943F070637B61FB78BC
:1009F000002B08D07B685B0D1B011A463B699340B6
:100A00007A6913437B617B68002B03DA054A7B69B3
:100A1000D36102E0034A7B6953601C37BD465DF831
:100A2000047B70470000014090B484B000AF0346DF
:100A30000A46FB711346BB710023FB60BB7903F0D0
:100A400003039B000F2202FA03F3FB601649BB79F4
:100A50009B08DBB21846144ABB799B08DBB2023311
:100A600052F82320FB68DB431A40831C41F8232003
:100A70000D48BB799B08DBB21C460B4ABB799B082F
:100A8000DBB2023352F82320F979BB7903F0030378
:100A90009B0001FA03F31A43A31C40F823201037EC
:100AA000BD4690BC704700BF0000014080B483B0D9
:100AB00000AF7860034A7B6813600C37BD465DF871
:100AC000047B7047DC00204280B400AF134A134B14
:100AD0001B6843F0010313601049104B5A68104B18
:100AE00013404B600D4A0D4B1B6823F0847323F4B5
:100AF00080331360094A094B1B6823F48023136079
:100B0000064A064B5B6823F4FE035360034B4FF425
:100B10001F029A60BD465DF8047B704700100240DA
:100B20000000FFF880B483B000AF7860134A134B25
:100B30001B6823F480331360104A104B1B6823F4A6
:100B4000802313607B68B3F5803F03D0B3F5802F1B
:100B500007D00DE0094A094B1B6843F4803313604A
:100B600006E0064A054B1B6843F4A023136000BF50
:100B70000C37BD465DF8047B704700BF0010024093
:100B800080B582B000AF00233B600023FB710023DF
:100B9000BB71312000F012FB0346BB713B6801338F
:100BA0003B603B68B3F5A06F02D0BB79002BF0D05F
:100BB000312000F003FB0346002B02D00123FB7120
:100BC00001E00023FB71FB7918460837BD4680BD64
:100BD00080B485B000AF0346FB710023FB600A4B75
:100BE0001B68FB60FB6823F0F803FB60FB79DB000C
:100BF000FA681343FB60044AFB6813601437BD4670
:100C00005DF8047B704700BF0010024080B483B0E1
:100C100000AF0346FB71044AFB7913600C37BD46F5
:100C20005DF8047B704700BF0000424280B485B08D
:100C300000AF786039600023FB600A4B5B68FB60A3
:100C4000FB6823F47C13FB607A683B681343FA6803
:100C50001343FB60034AFB6853601437BD465DF8DD
:100C6000047B70470010024080B483B000AF03469D
:100C7000FB71044AFB7913600C37BD465DF8047BB9
:100C8000704700BF6000424280B485B000AF78601A
:100C90000023FB60094B5B68FB60FB6823F00303E8
:100CA000FB60FA687B681343FB60044AFB6853608F
:100CB0001437BD465DF8047B704700BF001002404A
:100CC00080B400AF054B5B68DBB203F00C03DBB212
:100CD0001846BD465DF8047B704700BF0010024017
:100CE00080B485B000AF78600023FB60094B5B687F
:100CF000FB60FB6823F0F003FB60FA687B6813433A
:100D0000FB60044AFB6853601437BD465DF8047B02
:100D1000704700BF0010024080B485B000AF78601B
:100D20000023FB60094B5B68FB60FB6823F4E06316
:100D3000FB60FA687B681343FB60044AFB685360FE
:100D40001437BD465DF8047B704700BF00100240B9
:100D500080B485B000AF78600023FB60094B5B680E
:100D6000FB60FB6823F46053FB607B68DB00FA6880
:100D70001343FB60034AFB6853601437BD465DF8BC
:100D8000047B70470010024080B483B000AF03467C
:100D90000A46FB711346BB71BB79002B08D00C4986
:100DA0000B4B1B78DAB2FB791343DBB20B7009E013
:100DB0000749074B1B78DAB2FB79DB43DBB2134000
:100DC000DBB20B700C37BD465DF8047B704700BF8B
:100DD0000910024080B483B000AF7860034A7B689A
:100DE00013600C37BD465DF8047B7047D800424263
:100DF00080B485B000AF78600023FB60094B5B686E
:100E0000FB60FB6823F44043FB60FA687B68134394
:100E1000FB60044AFB6853601437BD465DF8047BF1
:100E2000704700BF0010024080B483B000AF03469B
:100E3000FB710C4B00221A700A4B00221A70FB79CE
:100E4000012B02D0042B04D007E0064B01221A70BC
:100E500003E0044B05221A7000BF0C37BD465DF855
:100E6000047B70472010024080B483B000AF03467B
:100E7000FB71044AFB7913600C37BD465DF8047BB7
:100E8000704700BF8004424280B483B000AF7860F6
:100E90000549054B1A6A7B6813430B620C37BD4644
:100EA0005DF8047B704700BF0010024080B483B03F
:100EB00000AF0346FB71044AFB7913600C37BD4653
:100EC0005DF8047B704700BF3C04424280B487B0A9
:100ED00000AF786000237B6100233B610023FB604F
:100EE0000023BB604D4B5B6803F00C037B617B69A7
:100EF000042B07D0082B09D0002B34D17B68484A3B
:100F00001A6034E07B68464A1A6030E0434B5B6805
:100F100003F470133B61414B5B6803F48033FB6067
:100F20003B699B0C02333B61FB68002B06D13B699C
:100F30003C4A02FB03F27B681A6013E0374B5B68A4
:100F400003F40033002B06D03B69364A02FB03F260
:100F50007B681A6006E03B69314A02FB03F27B685A
:100F60001A6004E003E07B682D4A1A6000BF2B4B37
:100F70005B6803F0F0037B617B691B097B612A4A94
:100F80007B6913441B78DBB2BB607B681A68BB6863
:100F9000DA407B685A60214B5B6803F4E0637B6155
:100FA0007B691B0A7B61204A7B6913441B78DBB297
:100FB000BB607B685A68BB68DA407B689A60174BF5
:100FC0005B6803F460537B617B69DB0A7B61164AD3
:100FD0007B6913441B78DBB2BB607B685A68BB68D3
:100FE000DA407B68DA600D4B5B6803F440437B6159
:100FF0007B699B0B7B610D4A7B6913441B78DBB2D9
:10100000BB607B68DA68BB68B2FBF3F27B681A618D
:101010001C37BD465DF8047B704700BF00100240DE
:1010200000127A0000093D0000000020100000209E
:1010300080B483B000AF78600B46FB70FB78002B68
:1010400006D00949084B5A697B6813434B6106E097
:101050000549054B5A697B68DB4313404B610C37EC
:10106000BD465DF8047B70470010024080B483B039
:1010700000AF78600B46FB70FB78002B06D0094967
:10108000084B9A697B6813438B6106E00549054B61
:101090009A697B68DB4313408B610C37BD465DF872
:1010A000047B70470010024080B483B000AF7860CA
:1010B0000B46FB70FB78002B06D00949084BDA6918
:1010C0007B681343CB6106E00549054BDA697B6811
:1010D000DB431340CB610C37BD465DF8047B7047A2
:1010E0000010024080B483B000AF78600B46FB7004
:1010F000FB78002B06D00949084BDA687B6813435C
:10110000CB6006E00549054BDA687B68DB4313409A
:10111000CB600C37BD465DF8047B70470010024081
:1011200080B483B000AF78600B46FB70FB78002B77
:1011300006D00949084B1A697B6813430B6106E026
:101140000549054B1A697B68DB4313400B610C377B
:10115000BD465DF8047B70470010024080B483B048
:1011600000AF0346FB71044AFB7913600C37BD46A0
:101170005DF8047B704700BF4004424280B483B0F6
:1011800000AF0346FB71044AFB7913600C37BD4680
:101190005DF8047B704700BF4C00424280B483B0CE
:1011A00000AF0346FB71044AFB7913700C37BD4650
:1011B0005DF8047B704700BF0710024080B487B021
:1011C00000AF0346FB710023FB6000237B6100231B
:1011D000FB74FB795B09DBB2FB60FB68012B03D17D
:1011E000124B1B687B6109E0FB68022B03D10F4B9C
:1011F0001B6A7B6102E00D4B5B6A7B61FB7903F04C
:101200001F03FB60FB687A6922FA03F303F0010312
:10121000002B02D00123FB7401E00023FB74FB7C54
:1012200018461C37BD465DF8047B7047001002402D
:1012300080B400AF044A044B5B6A43F0807353628E
:10124000BD465DF8047B70470010024080B485B055
:1012500000AF0346FB710023FB73094B9A68FB79CF
:101260001340002B02D00123FB7301E00023FB732A
:10127000FB7B18461437BD465DF8047B704700BF02
:101280000010024080B483B000AF0346FB71044AF3
:10129000FB7913700C37BD465DF8047B704700BFC7
:1012A0000A10024080B483B000AF78607B681A688F
:1012B0004FF6FE7313407A6813607B6800221A6051
:1012C0007B6800225A607B6800229A607B6800225B
:1012D000DA607B68434A934206D1434A424B5B68DB
:1012E00043F00F03536077E07B68404A934206D196
:1012F0003D4A3D4B5B6843F0F00353606CE07B6814
:101300003B4A934206D1384A374B5B6843F47063DB
:10131000536061E07B68374A934206D1324A324BD0
:101320005B6843F47043536056E07B68324A9342F3
:1013300006D12D4A2C4B5B6843F4702353604BE07D
:101340007B682E4A934206D1274A274B5B6843F4B9
:101350007003536040E07B68294A934206D1224AD9
:10136000214B5B6843F07063536035E07B68254A2E
:10137000934206D1244A244B5B6843F00F03536029
:101380002AE07B68214A934206D11F4A1E4B5B68C4
:1013900043F0F00353601FE07B681D4A934206D17F
:1013A000194A194B5B6843F47063536014E07B681F
:1013B000184A934206D1144A134B5B6843F47043B6
:1013C000536009E07B68144A934205D10E4A0E4BE4
:1013D0005B6843F4702353600C37BD465DF8047BB3
:1013E000704700BF08000240000002401C0002409D
:1013F0003000024044000240580002406C000240AD
:101400008000024008040240000402401C04024024
:1014100030040240440402405804024080B485B0C5
:1014200000AF786039600023FB607B681B68FB605D
:10143000FB6823F4FF4323F07003FB603B689A686A
:101440003B681B6A1A433B681B691A433B685B692C
:101450001A433B689B691A433B68DB691A433B6844
:101460005B6A1A433B689B6A1343FA681343FB6049
:101470007B68FA681A603B68DA687B685A603B6888
:101480001A687B689A603B685A687B68DA60143730
:10149000BD465DF8047B704780B483B000AF7860D0
:1014A0007B6800221A607B6800225A607B680022F9
:1014B0009A607B680022DA607B6800221A617B6890
:1014C00000225A617B6800229A617B680022DA61FF
:1014D0007B6800221A627B6800225A627B680022C5
:1014E0009A620C37BD465DF8047B704780B483B0C8
:1014F00000AF78600B46FB70FB78002B06D07B6852
:101500001B6843F001027B681A6006E07B681A687A
:101510004FF6FE7313407A6813600C37BD465DF8D2
:10152000047B704780B485B000AFF860B9601346A3
:10153000FB71FB79002B06D0FB681A68BB681A4365
:10154000FB681A6006E0FB681A68BB68DB431A4058
:10155000FB681A601437BD465DF8047B704700BF16
:1015600080B483B000AF78600B467B807A887B685C
:101570005A600C37BD465DF8047B704780B483B079
:1015800000AF78607B685B689BB218460C37BD463D
:101590005DF8047B704700BF80B485B000AF786011
:1015A0000023FB730023BB607B6803F08053002B98
:1015B00003D00C4B1B68BB6002E00B4B1B68BB608D
:1015C000BA687B681340002B02D00123FB7301E053
:1015D0000023FB73FB7B18461437BD465DF8047B84
:1015E000704700BF000402400000024080B483B096
:1015F00000AF78607B6803F08053002B03D0064A6D
:101600007B68536002E0054A7B6853600C37BD4637
:101610005DF8047B704700BF0004024000000240F8
:1016200080B485B000AF78600023FB730023BB60FB
:101630007B6803F08053002B03D00C4B1B68BB600E
:1016400002E00B4B1B68BB60BA687B681340002B41
:1016500002D00123FB7301E00023FB73FB7B1846E0
:101660001437BD465DF8047B704700BF000402409C
:101670000000024080B483B000AF78607B6803F064
:101680008053002B03D0064A7B68536002E0054A72
:101690007B6853600C37BD465DF8047B704700BF24
:1016A000000402400000024080B483B000AF7860C4
:1016B000054A7B6843F0BF6343F40033D3600C37C3
:1016C000BD465DF8047B704700ED00E080B487B054
:1016D00000AF786000237B6100233B610F23FB6038
:1016E0007B68DB78002B3AD0274BDB68DB4303F4C5
:1016F000E0631B0A7B617B69C3F104033B617B6987
:10170000FA6822FA03F3FB607B685B781A463B6950
:1017100002FA03F37B617B689B781A46FB681340EF
:101720007A6913437B617B691B017B61174A7B6884
:101730001B787969C9B213440A4683F80023134A17
:101740007B681B785B09DBB218467B681B7803F06B
:101750001F03012101FA03F342F820300FE00B4987
:101760007B681B785B09DBB218467B681B7803F04B
:101770001F0301229A4000F1200341F823201C3767
:10178000BD465DF8047B704700ED00E000E100E03D
:1017900080B483B000AF7860396007493B6823F0BC
:1017A000604323F07F037A6813438B600C37BD4698
:1017B0005DF8047B704700BF00ED00E080B483B0AB
:1017C00000AF03460A46FB711346BB71BB79002B81
:1017D00006D00949084B1A69FB7913430B6106E0EF
:1017E0000549054B1A69FB79DB4313400B610C3744
:1017F000BD465DF8047B704700ED00E080B483B027
:1018000000AF78607B68042B06D1094A084B1B683F
:1018100043F00403136005E0054A054B1B6823F001
:10182000040313600C37BD465DF8047B704700BFAE
:1018300010E000E080B582B000AF78607B680D4AB0
:1018400093420AD14FF400100121FFF769FC4FF4D5
:1018500000100021FFF764FC09E04FF48000012133
:10186000FFF75EFC4FF480000021FFF759FC0837BA
:10187000BD4680BD0054004080B58AB000AF78609E
:1018800039600023FB8400237B840423BB84574BF3
:10189000FB617B689B88FB84FB8C23F03F03FB840C
:1018A00007F108031846FFF711FB3B69FB61FB6971
:1018B0004F4AA2FB03239B0C7B84FA8C7B8C134343
:1018C000FB847B68FA8C9A807B681B889BB223F030
:1018D00001039AB27B681A800023FB843B681B6873
:1018E000444A934215D83B681B685B00FA69B2FB17
:1018F000F3F3BB84BB8C032B01D80423BB84FA8C89
:10190000BB8C1343FB847B8C01339AB27B681A84B3
:1019100040E03B68DB884BF6FF72934209D13B689D
:101920001A6813465B001344FA69B2FBF3F3BB84F5
:101930000EE03B681A6813469B0013449A00134458
:10194000FA69B2FBF3F3BB84BB8C43F48043BB84E2
:10195000BB8CC3F30B03002B03D1BB8C43F00103FF
:10196000BB84BA8CFB8C13439BB26FEA43436FEA90
:101970005343FB847B8C4FF4967202FB03F31E4AA5
:1019800082FB03129211DB17D31A9BB201339AB276
:101990007B681A847B68FA8C9A837B681B889BB26D
:1019A00043F001039AB27B681A807B681B88FB8432
:1019B000FB8C23F4816323F00203FB843B689A8849
:1019C0003B685B8913439AB2FB8C1343FB847B68AF
:1019D000FA8C1A803B689A893B681B8913439AB238
:1019E0007B681A812837BD4680BD00BF00127A008F
:1019F00083DE1B43A0860100D34D621080B483B008
:101A000000AF78607B6841F288321A607B68002200
:101A10009A807B684BF6FF72DA807B6800221A811D
:101A20007B6800225A817B684FF480429A810C3790
:101A3000BD465DF8047B704780B483B000AF78602A
:101A40000B46FB70FB78002B08D07B681B889BB291
:101A500043F001039AB27B681A8007E07B681B8819
:101A60009BB223F001039AB27B681A800C37BD4603
:101A70005DF8047B704700BF80B483B000AF78602E
:101A80000B46FB70FB78002B08D07B689B889BB2D1
:101A900043F400639AB27B689A8007E07B689B8876
:101AA0009BB223F400639AB27B689A800C37BD46E0
:101AB0005DF8047B704700BF80B483B000AF7860EE
:101AC0000B46FB70FB78002B08D07B689B889BB291
:101AD00043F480539AB27B689A8007E07B689B88C6
:101AE0009BB223F480539AB27B689A800C37BD4630
:101AF0005DF8047B704700BF80B483B000AF7860AE
:101B00000B46FB70FB78002B08D07B681B889BB2D0
:101B100043F480739AB27B681A8007E07B681B8865
:101B20009BB223F480739AB27B681A800C37BD464F
:101B30005DF8047B704700BF80B483B000AF78606D
:101B40000B46FB70FB78002B08D07B681B889BB290
:101B500043F400739AB27B681A8007E07B681B88A5
:101B60009BB223F400739AB27B681A800C37BD468F
:101B70005DF8047B704700BF80B483B000AF78602D
:101B80000B46FB70FB78002B08D07B681B889BB250
:101B900043F480639AB27B681A8007E07B681B88F5
:101BA0009BB223F480639AB27B681A800C37BD46DF
:101BB0005DF8047B704700BF80B485B000AF7860EB
:101BC0000B46FB700023FB817B689B89FB81FB89B3
:101BD00023F0FE03FB81FB789BB203F0FE039AB275
:101BE000FB8913439BB2FB817B68FA899A81143786
:101BF000BD465DF8047B704780B483B000AF786069
:101C00000B46FB70FB78002B08D07B689B899BB24E
:101C100043F001039AB27B689A8107E07B689B8955
:101C20009BB223F001039AB27B689A810C37BD46C0
:101C30005DF8047B704700BF80B483B000AF78606C
:101C40000B46FB70FB78002B08D07B681B889BB28F
:101C500043F040039AB27B681A8007E07B681B88D8
:101C60009BB223F040039AB27B681A800C37BD46C2
:101C70005DF8047B704700BF80B483B000AF78602C
:101C80000B467B8013467B707B78002B08D07B68EB
:101C90009B889AB27B8813439AB27B689A8009E04A
:101CA0007B689B889AB27B88DB439BB213409AB2D5
:101CB0007B689A800C37BD465DF8047B704700BF97
:101CC00080B483B000AF78600B46FB70FB789AB2AB
:101CD0007B681A820C37BD465DF8047B704700BFF5
:101CE00080B483B000AF78607B681B8A9BB2DBB2A4
:101CF00018460C37BD465DF8047B704780B483B04E
:101D000000AF78600B46FB701346BB70BB78002BAE
:101D100004D0FB7843F00103FB7003E0FB7823F071
:101D20000103FB70FB789AB27B681A820C37BD46C0
:101D30005DF8047B704700BF80B485B000AF786069
:101D40000B46FB700023FB607B68FB60FA78FB6846
:101D50001344FB60FB681B889BB218461437BD46D2
:101D60005DF8047B704700BF80B483B000AF78603B
:101D70000B46FB70FB78002B0AD07B681B889BB25C
:101D80006FEA43436FEA53439AB27B681A8007E0D5
:101D90007B681B889BB2C3F30E039AB27B681A80E0
:101DA0000C37BD465DF8047B704700BF80B483B03C
:101DB00000AF78600B467B807B88B3F5006F08D15D
:101DC0007B681B889BB243F400639AB27B681A80DD
:101DD00007E07B681B889BB223F400639AB27B68A0
:101DE0001A800C37BD465DF8047B704780B483B021
:101DF00000AF78600B467B807B88B3F5005F08D12D
:101E00007B681B889BB243F400539AB27B681A80AC
:101E100007E07B681B889BB223F400539AB27B686F
:101E20001A800C37BD465DF8047B704780B483B0E0
:101E300000AF78600B46FB70FB78002B08D07B6806
:101E40001B889BB243F480539AB27B681A8007E0E8
:101E50007B681B889BB223F480539AB27B681A80FC
:101E60000C37BD465DF8047B704700BF80B483B07B
:101E700000AF78600B467B807B88B3F5006F08D19C
:101E80007B681B889BB243F400639AB27B681A801C
:101E900007E07B681B889BB223F400639AB27B68DF
:101EA0001A800C37BD465DF8047B704780B483B060
:101EB00000AF78600B46FB70FB78002B08D07B6886
:101EC0001B889BB243F020039AB27B681A8007E01C
:101ED0007B681B889BB223F020039AB27B681A8030
:101EE0000C37BD465DF8047B704700BF80B483B0FB
:101EF00000AF78607B681B8B9BB21B0A9BB2DBB286
:101F000018460C37BD465DF8047B704780B483B03B
:101F100000AF78600B46FB70FB78002B08D07B6825
:101F20001B889BB243F010039AB27B681A8007E0CB
:101F30007B681B889BB223F010039AB27B681A80DF
:101F40000C37BD465DF8047B704700BF80B483B09A
:101F500000AF78600B46FB70FB78002B08D17B68E4
:101F60001B889BB243F080039AB27B681A8007E01B
:101F70007B681B889BB223F080039AB27B681A802F
:101F80000C37BD465DF8047B704700BF80B483B05A
:101F900000AF78600B467B807B88B3F5804F08D01C
:101FA0007B689B8B9BB223F480439AB27B689A83B5
:101FB00007E07B689B8B9BB243F480439AB27B68BB
:101FC0009A830C37BD465DF8047B704780B487B0B8
:101FD00000AF7860396000233B610023FB60002381
:101FE000BB600023FB757B689B8A9BB2FB607B68B0
:101FF0001B8B9BB2BB60BB681B04BB60FA68BB68F1
:10200000134323F07F433B613A693B681A403B68C6
:102010009A4202D10123FB7501E00023FB75FB7D91
:1020200018461C37BD465DF8047B704780B487B006
:1020300000AF786000237B6100233B610023FB60DD
:102040007B689B8A9BB23B617B681B8B9BB2FB606E
:10205000FB681B04FB603A69FB68134323F07F4372
:102060007B617B6918461C37BD465DF8047B704771
:1020700080B487B000AF786039600023FB7500231F
:102080003B610023FB607B68FB603B681B0F3B618F
:102090003B6823F07F433B603B69002B03D0FB6828
:1020A0001433FB6005E03B681B0C3B60FB68183396
:1020B000FB60FB681A683B681340002B02D00123C9
:1020C000FB7501E00023FB75FB7D18461C37BD4600
:1020D0005DF8047B704700BF80B485B000AF7860C6
:1020E00039600023FB603B6823F07F43FB60FB68A3
:1020F0009BB2DB439AB27B689A821437BD465DF887
:10210000047B704780B485B000AF786039600023ED
:10211000FB730023BB603B6803F0E0631B0C7A6831
:10212000928892B21340BB603B6823F07F433B60D0
:102130007B689B8A9BB21A463B681340002B05D0F4
:10214000BB68002B02D00123FB7301E00023FB736B
:10215000FB7B18461437BD465DF8047B704700BF13
:1021600080B485B000AF786039600023FB603B68C5
:1021700023F07F43FB60FB689BB2DB439AB27B6832
:102180009A821437BD465DF8047B7047002103E056
:102190000A4B5B584350043109480A4B42189A4293
:1021A000F6D3094A02E0002342F8043B074B9A4267
:1021B000F9D300F00FF802F043F97047CC4900085A
:1021C000000000206C0400206C0400209405002016
:1021D000FEE7000080B500AF154A154B1B6843F0C1
:1021E000010313601249124B5A68124B13404B60A3
:1021F0000F4A0F4B1B6823F0847323F48033136062
:102200000B4A0B4B1B6823F480231360084A084BCE
:102210005B6823F4FE035360054B4FF41F029A6082
:1022200000F07AF8044B4FF000629A6080BD00BF66
:10223000001002400000FFF800ED00E080B485B01F
:1022400000AF0023FB600023BB6000237B602D4BAD
:102250005B6803F00C03FB60FB68042B07D0082BC2
:1022600009D0002B34D1284B284A1A6034E0264B81
:10227000264A1A6030E0234B5B6803F47013BB609E
:10228000204B5B6803F480337B60BB689B0C02339C
:10229000BB607B68002B06D1BB681D4A02FB03F3C1
:1022A000194A136013E0174B5B6803F40033002BEB
:1022B00006D0BB68164A02FB03F3134A136006E01C
:1022C000BB68124A02FB03F30F4A136004E003E009
:1022D0000D4B0E4A1A6000BF0A4B5B6803F0F00317
:1022E0001B090C4AD35CDBB2FB60074B1A68FB6826
:1022F00022FA03F3044A13601437BD465DF8047BE9
:10230000704700BF001002401400002000127A0045
:1023100000093D001800002080B500AF00F002F871
:1023200080BD00BF80B483B000AF00237B6000237A
:102330003B603A4A394B1B6843F480331360374B98
:102340001B6803F400333B607B6801337B603B68B0
:10235000002B03D17B68B3F5A06FF0D12F4B1B6826
:1023600003F40033002B02D001233B6001E0002383
:102370003B603B68012B4BD1294A294B1B6843F03A
:1023800010031360264A264B1B6823F003031360D7
:10239000234A234B1B6843F0020313601F4A1F4B61
:1023A0005B6853601D4A1D4B5B6853601B4A1B4BA7
:1023B0005B6843F480635360184A184B5B6823F4EE
:1023C0007C135360154A154B5B6843F4E813536064
:1023D000124A124B1B6843F08073136000BF0F4B0F
:1023E0001B6803F00073002BF9D00C4A0B4B5B68A1
:1023F00023F003035360094A084B5B6843F0020370
:10240000536000BF054B5B6803F00C03082BF9D148
:102410000C37BD465DF8047B704700BF00100240DA
:102420000020024080B586B000AFF860B9607A60E5
:10243000FB7000237B617B6900233B61FB689B8809
:102440009BB243F480739AB2FB689A80FB78022BAC
:1024500040F08C80F868B9687A68012300F030FD9C
:10246000FB689B889BB243F480539AB2FB689A80C6
:10247000FB689B889BB243F400639AB2FB689A8026
:102480004FF6FF733B61FB681B889BB243F480737C
:102490009AB2FB681A8006E03B695A1E3A61002B2B
:1024A00001D1002363E2FB689B8A9BB203F0010326
:1024B000002BF1D04FF6FF733B6197F8203043F0CB
:1024C000010387F82030864A97F820301370844B38
:1024D0001B78DBB29AB2FB681A8206E03B695A1E8F
:1024E0003A61002B01D1002341E2FB689B8A9BB239
:1024F00003F00203002BF1D0FB681B8B9BB27B61C6
:10250000FB68784A934210D100BF4FF00070FFF78C
:1025100043F80346002BF8D073480021FEF7E6FF8E
:102520004FF00070FFF762F80FE000BF4FF400308B
:10253000FFF732F80346002BF8D06C480021FEF775
:10254000D5FF4FF40030FFF751F8FB681B889BB2B2
:1025500043F400739AB2FB681A8000BFFB681B88C3
:102560009BB203F40073002BF8D1FFE1FB78002B42
:1025700040F0B4817B68012B70D14FF6FF733B6153
:10258000FB681B889BB243F480739AB2FB681A8085
:1025900006E03B695A1E3A61002B01D10023E6E1B7
:1025A000FB689B8A9BB203F00103002BF1D097F8E4
:1025B000203043F0010387F82030494A97F8203053
:1025C0001370474B1B78DBB29AB2FB681A824FF646
:1025D000FF733B6106E03B695A1E3A61002B01D153
:1025E0000023C4E1FB689B8A9BB203F00203002B2B
:1025F000F1D0FB681B889BB223F480639AB2FB681E
:102600001A8072B6FB681B8B9BB27B61FB681B88D0
:102610009BB243F400739AB2FB681A8062B600BFA3
:10262000FB689B8A9BB203F04003002BF8D0FB6849
:102630001B8A9BB2DAB2BB681A7000BFFB681B88AA
:102640009BB203F40073002BF8D1FB681B889BB28C
:1026500043F480639AB2FB681A8087E17B68022B9F
:1026600040F09180FB681B889BB243F400639AB2F0
:10267000FB681A804FF6FF733B61FB681B889BB2B7
:1026800043F480739AB2FB681A8006E03B695A1ED5
:102690003A61002B01D1002369E1FB689B8A9BB260
:1026A00003F00103002BF1D04FF6FF733B6197F865
:1026B000203043F0010387F82030094A97F8203092
:1026C0001370074B1B78DBB29AB2FB681A820FE0DB
:1026D0003B695A1E3A61002B0AD1002347E100BF33
:1026E000880500200054004080000240580002404D
:1026F000FB689B8A9BB203F00203002BE8D072B602
:10270000FB681B8B9BB27B61FB681B889BB223F42D
:1027100080639AB2FB681A8062B600BFFB689B8A2E
:102720009BB203F00403002BF8D072B6F8680121C5
:10273000FFF702FAFB681B8A9BB2DAB2BB681A7019
:1027400062B6BB680133BB60FB681B8A9BB2DAB21E
:10275000BB681A7000BFFB681B889BB203F4007350
:10276000002BF8D1FB681B889BB243F480639AB2BC
:10277000FB681A80FB681B889BB223F400639AB243
:10278000FB681A80F2E04FF6FF733B61FB681B8821
:102790009BB243F480739AB2FB681A8006E03B69EF
:1027A0005A1E3A61002B01D10023E0E0FB689B8AAE
:1027B0009BB203F00103002BF1D04FF6FF733B6196
:1027C00097F8203043F0010387F820306A4A97F8E1
:1027D00020301370684B1B78DBB29AB2FB681A8208
:1027E00006E03B695A1E3A61002B01D10023BEE08E
:1027F000FB689B8A9BB203F00203002BF1D0FB68BD
:102800001B8B9BB27B6155E07B68032B13D000BF11
:10281000FB689B8A9BB203F00403002BF8D0FB6893
:102820001B8A9BB2DAB2BB681A70BB680133BB600B
:102830007B68013B7B607B68032B3BD100BFFB685F
:102840009B8A9BB203F00403002BF8D0FB681B8823
:102850009BB223F480639AB2FB681A8072B6FB685D
:102860001B8A9BB2DAB2BB681A70BB680133BB60CB
:10287000FB681B889BB243F400739AB2FB681A8012
:10288000FB681B8A9BB2DAB2BB681A7062B6BB687F
:102890000133BB6000BFFB689B8A9BB203F040031F
:1028A000002BF8D0FB681B8A9BB2DAB2BB681A70A7
:1028B00000237B607B68002BA6D100BFFB681B88D0
:1028C0009BB203F40073002BF8D1FB681B889BB20A
:1028D00043F480639AB2FB681A8047E0FB689B88E8
:1028E0009BB243F400739AB2FB689A80FB689B88A2
:1028F0009BB243F480639AB2FB689A801F4B01221B
:102900001A6097F8203043F0010387F820301A4A04
:1029100097F820301370FB68194A934203D1194A83
:102920007B68136002E0184A7B681360FB681B88B1
:102930009BB243F480739AB2FB681A8000BFFB68B5
:102940001B889BB203F48073002BF8D100BFFB6897
:102950001B8B9BB203F00203002BF8D1FB681B8892
:102960009BB243F480639AB2FB681A800123184635
:102970001837BD4680BD00BF880500208C040020AC
:1029800000540040900500208C05002080B586B0E2
:1029900000AFF860B9607A60FB7000237B617B69EF
:1029A00000233B61FB689B889BB243F480739AB21F
:1029B000FB689A80FB78022B40F08C804FF6FF7307
:1029C0003B61F868B9687A68002300F079FAFB681F
:1029D0009B889BB243F400639AB2FB689A80FB68C1
:1029E0001B889BB243F480739AB2FB681A8006E09E
:1029F0003B695A1E3A61002B01D1002328E1FB6894
:102A00009B8A9BB203F00103002BF1D04FF6FF73BA
:102A10003B6197F8203023F0010387F820308E4A7D
:102A200097F8203013708C4B1B78DBB29AB2FB689E
:102A30001A8206E03B695A1E3A61002B01D100233D
:102A400006E1FB689B8A9BB203F00203002BF1D0E6
:102A5000FB681B8B9BB27B61FB68804A934210D161
:102A600000BF4FF40010FEF797FD0346002BF8D08F
:102A70007B480021FEF73AFD4FF40010FEF7B6FD4B
:102A80000FE000BF4FF40050FEF786FD0346002B19
:102A9000F8D074480021FEF729FD4FF40050FEF7EE
:102AA000A5FD00BFFB689B8A9BB203F00403002BCB
:102AB000F8D0FB681B889BB243F400739AB2FB68A2
:102AC0001A8000BFFB681B889BB203F40073002BC5
:102AD000F8D1BCE0FB78002B79D14FF6FF733B6156
:102AE000FB681B889BB243F480739AB2FB681A8020
:102AF00006E03B695A1E3A61002B01D10023A7E092
:102B0000FB689B8A9BB203F00103002BF1D097F87E
:102B1000203023F0010387F820304F4A97F8203007
:102B200013704D4B1B78DBB29AB2FB681A824FF6DA
:102B3000FF733B6106E03B695A1E3A61002B01D1ED
:102B4000002385E0FB689B8A9BB203F00203002B05
:102B5000F1D0FB681B8B9BB27B61BB681B789AB280
:102B6000FB681A82BB680133BB607B68013B7B60FA
:102B70000FE000BFFB689B8A9BB203F00403002BAD
:102B8000F8D0BB681B789AB2FB681A82BB68013325
:102B9000BB607B685A1E7A60002BEAD100BFFB68DD
:102BA0009B8A9BB203F00403002BF8D0FB681B88C0
:102BB0009BB243F400739AB2FB681A8000BFFB68B3
:102BC0001B889BB203F40073002BF8D13FE0FB6835
:102BD0009B889BB243F400739AB2FB689A80FB68AF
:102BE0009B889BB243F480639AB2FB689A801E4B29
:102BF00000221A6097F8203023F0010387F8203074
:102C0000154A97F820301370FB68144A934203D199
:102C1000164A7B68136002E0154A7B681360FB6804
:102C20001B889BB243F480739AB2FB681A8000BF82
:102C3000FB681B889BB203F48073002BF8D100BFA4
:102C4000FB681B8B9BB203F00203002BF8D101231E
:102C500018461837BD4680BD880500200054004046
:102C60006C000240440002408C04002090050020CB
:102C70008C05002080B483B000AF78600B46FB70F9
:102C80007B689B889BB243F400739AB27B689A80FE
:102C90007B689B889BB243F480739AB27B689A806E
:102CA000FB78022B08D17B689B889BB243F40063BE
:102CB0009AB27B689A8007E07B689B889BB243F45A
:102CC00080639AB27B689A800C37BD465DF8047BBE
:102CD000704700BF80B588B000AF78600820012140
:102CE000FEF7C4F901200121FEF7A2F97B68694AC9
:102CF000934223D14FF400100121FEF7D5F9402370
:102D0000BB830323BB771C23FB7707F11C036248BB
:102D10001946FDF75BFC8023BB8307F11C035E486B
:102D20001946FDF753FC4FF400100121FEF7F8F9A6
:102D30004FF400100021FEF7F3F924E04FF4800077
:102D40000121FEF7B1F94FF48063BB830323BB7706
:102D50001C23FB7707F11C034F481946FDF736FC8F
:102D60004FF40063BB8307F11C034B481946FDF782
:102D70002DFC4FF480000121FEF7D2F94FF48000C2
:102D80000021FEF7CDF900233B824BF6FF737B82D7
:102D90002823BB824FF48063FB824FF480433B8344
:102DA0003E4BFB6007F10C033A481946FEF764FD01
:102DB0003023BB8207F10C0339481946FEF75CFD4E
:102DC0007B68344A934231D13648FEF76BFA364B72
:102DD000364A1A60344B00225A60334B10229A60F4
:102DE000314B4FF6FF72DA602F4B00221A612E4BE7
:102DF00080225A612C4B00229A612B4B0022DA610F
:102E0000294B00221A62284B4FF440525A62264B3B
:102E100000229A6223482449FEF700FB2448FEF76B
:102E200041FA23482049FEF7F9FA30E02148FEF73D
:102E300039FA1D4B204A1A601B4B00225A601A4B6C
:102E400010229A60184B4FF6FF72DA60164B002280
:102E50001A61154B80225A61134B00229A61124B62
:102E60000022DA61104B00221A620F4B4FF44052DD
:102E70005A620D4B00229A620E480B49FEF7CEFAB9
:102E80000E48FEF70FFA0D480749FEF7C7FA20373C
:102E9000BD4680BD00540040000C0140A0860100EA
:102EA000005800406C0002405C05002010540040B7
:102EB0008000024044000240105800405800024088
:102EC00080B584B000AFF860B9607A603B603B6861
:102ED000002B2CD1BB682D4A53602C4B10229A60DA
:102EE0002A4A7B68D360FB68294A93420FD1274B5B
:102EF000284A1A6028480021FEF7F8FA2648234994
:102F0000FEF78CFA24480121FEF7F0FA3BE01F4B54
:102F1000224A1A6022480021FEF7E8FA20481B499D
:102F2000FEF77CFA1E480121FEF7E0FA2BE0BB68B1
:102F3000164A5360154B00229A60144A7B68D3608E
:102F4000FB68134A93420FD1104B124A1A6015487E
:102F50000021FEF7CBFA13480C49FEF75FFA11483F
:102F60000121FEF7C3FA0EE0084B0C4A1A600E4826
:102F70000021FEF7BBFA0C480449FEF74FFA0A4855
:102F80000121FEF7B3FA1037BD4680BD5C05002075
:102F900000540040105400406C00024010580040A3
:102FA00044000240800002405800024080B586B0D4
:102FB00002AF03460A46FB711346BB710023FB7345
:102FC000BB79002B02D0264B1B78FB73FB7923F0D7
:102FD0000F03DAB2234B1B78DBB21343DAB2224B76
:102FE0001B78DBB21343DAB2FB7B1343DBB2DAB2FA
:102FF0001E4B1A70FB7923F00F03DAB2194B1B78C2
:10300000DBB21343DBB2DAB2184B5A70FB791B0107
:10301000DAB2144B1B78DBB21343DAB2124B1B78D3
:10302000DBB21343DAB2FB7B1343DBB2DAB20F4BF2
:103030009A70FB791B01DAB20A4B1B78DBB213439F
:10304000DBB2DAB2094BDA704E2300930848074925
:1030500004220023FFF79AFC1037BD4680BD00BF55
:103060002B000020280000202900002090040020D0
:103070000054004080B582B000AF0346FB71FB797D
:1030800018460121FFF792FFC820FDF7C9F808375D
:10309000BD4680BD80B582B000AF0346FB71FB79B1
:1030A00018460021FFF782FF41F28830FDF7B8F89B
:1030B0000837BD4680BD00BF80B584B000AF7860E2
:1030C0007B68FB6006E0FB685A1CFA601B781846B8
:1030D000FFF7D0FFFB681B78002BF4D11037BD46FB
:1030E00080BD00BF80B584B002AF0346FB71FB79A1
:1030F000DB00DAB20E4B1A704E2300930D480E49D6
:1031000001220023FFF78EF90B4B1A78084B1B782E
:103110001343DAB2084B1A704E2300930548064950
:1031200001220023FFF732FC0837BD4680BD00BFF7
:1031300028000020005400409004002080B582B098
:1031400000AF0346FB71FB79032B1BD801A252F899
:1031500023F000BF653100086D31000875310008AB
:103160007D3100088020FFF795FF0CE0C020FFF7BD
:1031700091FF08E09420FFF78DFF04E0D420FFF7D3
:1031800089FF00E000BF0837BD4680BD80B584B030
:1031900000AF03460A46FB711346BB71FB79184624
:1031A000FFF7CCFF0023FB7302E01420FFF772FF50
:1031B000FB7B5A1CFA73BA799A42F6D81037BD468F
:1031C00080BD00BF80B584B000AF03463960FB719D
:1031D000FB79072B00D919E0FB790833DBB2DB0060
:1031E000FB71FB791846FFF755FF0023FB730AE0DC
:1031F000FB7B3A6813441B7818460121FFF7D6FE83
:10320000FB7B0133FB73FB7B072BF1D91037BD46EA
:1032100080BD00BF80B586B002AF274B1A78274B20
:103220001A70254B1A78254B5A704E230093244868
:10323000224901220023FFF7A9FB0320FFF72AFF01
:1032400041F28830FCF7ECFF0320FFF723FF6420F6
:10325000FCF7E6FF0220FFF71DFFC820FCF7E0FFA8
:103260002820FFF717FF0620FFF714FF0120FFF7C4
:1032700011FF0E20FFF70EFF0C20FFF70BFF114A86
:103280003B461068516803C33B4600201946FFF7D0
:1032900099FF0D4A07F108031068516803C307F14D
:1032A000080301201946FFF78DFF0120FFF7F2FE0A
:1032B0001037BD4680BD00BF2800002090040020CC
:1032C00000540040044900080C49000880B500AFD4
:1032D0000120FFF7DFFE80BD80B582B000AF03465E
:1032E000FB71FB799BB20748194600F063FE00BFF3
:1032F0000448802100F0AAFF0346002BF8D00837CD
:10330000BD4680BD0038014080B582B000AF0346A5
:10331000FB71FB799BB20748194600F04BFE00BFDA
:103320000448802100F092FF0346002BF8D00837B4
:10333000BD4680BD0044004080B483B000AF7860DB
:103340000B46FB707B68FA781A70012318460C371D
:10335000BD465DF8047B704780B485B000AF7860EF
:1033600039600023FB600AE07B685A1C7A603A6887
:10337000511C396012781A70FB680133FB603B689E
:103380001B78002BF0D1FB6818461437BD465DF85A
:10339000047B704780B586B000AFF8607A603B6010
:1033A0000B46FB7200237B617B68013B7B603B68C3
:1033B000092B10D93B681E4AA2FB0323DB08FA7ACB
:1033C000F86811467A68FFF7E5FF78617B69FA686B
:1033D0001344FB6011E00DE0FB7AF8681946FFF733
:1033E000ABFFFB680133FB607B6901337B617B686A
:1033F000013B7B607B68002BEEDC39680C4BA3FB48
:103400000123DA0813469B0013445B00CA1AD3B2A7
:103410003033DBB2F8681946FFF78EFF02467B694E
:1034200013447B617B6918461837BD4680BD00BFD9
:10343000CDCCCCCC90B587B000AFF8607A603B6063
:103440000B46FB7200237B613B68002B03DA3B6871
:103450005B423B6101E03B683B617B68013B7B6019
:103460003B69092B25D93B68002B0FDA3B69314AB0
:10347000A2FB0323DB085B421C46FB7AF868194673
:103480007A682346FFF7D6FF78610DE03B69294A49
:10349000A2FB0323DB081C46FB7AF86819467A680E
:1034A0002346FFF7C7FF78617B69FA681344FB6026
:1034B00025E03B68002B02DA7B68013B7B600DE076
:1034C000FB7AF8681946FFF737FFFB680133FB60AA
:1034D0007B6901337B617B68013B7B607B68002BF0
:1034E000EEDC3B68002B0ADAF8682D21FFF724FF99
:1034F00002467B6913447B61FB680133FB603969D9
:103500000C4BA3FB0123DA0813469B0013445B001A
:10351000CA1AD3B23033DBB2F8681946FFF70CFF92
:1035200002467B6913447B617B6918461C37BD46A4
:1035300090BD00BFCDCCCCCC90B589B002AFF860C7
:103540007A601A460B46FB721346BB7200237B61FE
:103550007B68013B7B60BB6A1B09002B13D0BB6AF5
:103560001B09FA7ABC7A0093F86811467A682346F8
:10357000FFF7E2FF02467B6913447B617B69FA68CF
:103580001344FB6011E00DE0FB7AF8681946FFF781
:10359000D3FEFB680133FB607B6901337B617B6891
:1035A000013B7B607B68002BEEDCBB6A03F00F0302
:1035B000092B0BD8BB6ADBB203F00F03DBB230334D
:1035C000DBB2F8681946FFF7B7FE19E0BB7A002BAB
:1035D0000BD0BB6ADBB203F00F03DBB23733DBB2D5
:1035E000F8681946FFF7A8FE0AE0BB6ADBB203F0F1
:1035F0000F03DBB25733DBB2F8681946FFF79CFEC6
:103600007B6901337B617B6918461C37BD4690BDE1
:1036100090B58BB002AFF860B9607A603B60002370
:10362000BB6100237B61FB68002B02D0FB6800229A
:103630001A70FCE07B681B78252B0BD0FB685A1CAA
:10364000FA607A68511C796012781A707B690133CC
:103650007B61ECE07B6801331B78252B0BD1FB6889
:103660005A1CFA6025221A707B6802337B607B69E2
:1036700001337B61DBE02023FB770023BB777B6892
:1036800001337B607B681B78302B04D13023FB77C0
:103690007B6801337B600EE0BB7F1A4692001344C7
:1036A0005B00DAB27B681B781344DBB2303BBB773C
:1036B0007B6801337B607B681B782F2B03D97B6889
:1036C0001B78392BE8D9BA7F7B6913441A46BB684B
:1036D0009A4205D9BB68DAB27B69DBB2D31ABB77F1
:1036E0007B681B78583B202B00F2938001A252F894
:1036F00023F000BFCB370008133800081338000848
:10370000133800081338000813380008133800086D
:10371000133800081338000813380008133800085D
:10372000FD370008793700081338000813380008FF
:1037300013380008133800087937000813380008D8
:10374000133800081338000813380008133800082D
:10375000133800081338000813380008133800081D
:10376000E9370008133800089337000813380008B9
:1037700013380008AD370008BC7F3B681A1D3A605B
:103780001B68FA7FF86811462246FFF753FEB861BE
:1037900042E0BC7F3B681A1D3A601B68FA7FF868FC
:1037A00011462246FFF7F6FDB86135E0BC7F3B6865
:1037B0001A1D3A601B68FA7F0093F868114622468A
:1037C0000023FFF7B9FEB86126E0BC7F3B681A1DF5
:1037D0003A601B68FA7F0093F8681146224601237D
:1037E000FFF7AAFEB86117E03B681A1D3A601B6834
:1037F000F8681946FFF7B0FDB8610DE03B681A1D87
:103800003A601B68DBB2F8681946FFF795FDB861AE
:1038100002E04FF0FF3325E07B6801337B60BB693A
:10382000FA681344FB607A69BB6913447B617B6867
:103830001B78002B04D07A69BB689A42FFF4FAAE79
:103840007A69BB689A4203D2FB6800221A7008E0CA
:10385000FB68013BFB60FB6800221A707B69013B3F
:103860007B617B6918462437BD4690BD0CB480B59A
:1038700084B000AF7860396007F11C03BB607868E2
:103880003968BA69BB68FFF7C3FEF860FB68184681
:103890001037BD46BDE8804002B0704780B584B0A7
:1038A00000AFF860B9607A60F8686421BA687B6834
:1038B000FFF7AEFE034618461037BD4680BD00BF79
:1038C000B0B5A6B000AFF860B9607A60144B07F1EC
:1038D00010041D460FCD0FC40FCD0FC42B682360FD
:1038E00007F134031846B9687A68FFF7D7FF034633
:1038F000632B09DD0B4B1B68DB6807F110021046D8
:10390000194600F09FF8FEE707F134031846F968FE
:1039100000F098F8034618469837BD46B0BD00BF82
:10392000144900085804002080B582B000AF7860C8
:103930003960064B1B689B68184679683A68FFF740
:10394000BFFF034618460837BD4680BD5804002017
:103950000EB480B585B000AF786007F12003BB607E
:103960007868F969BA68FFF7ABFFF860FB6818463A
:103970001437BD46BDE8804003B070470FB480B532
:1039800082B000AF07F114033B6038693968FFF774
:10399000CBFF78607B6818460837BD46BDE880409D
:1039A00004B070470EB480B585B000AF786007F101
:1039B0002003BB607868F969BA68FFF76FFFF860A9
:1039C000FB6818461437BD46BDE8804003B0704719
:1039D00080B582B000AF7860054B1B689B68786843
:1039E000194600F02FF8034618460837BD4680BD3B
:1039F0005804002080B582B000AF78603960104B69
:103A00001B689A683B689A4206D17B68DBB218460D
:103A1000FFF762FC7B680EE0094B1B68DA683B68C5
:103A20009A4206D17B68DBB21846FFF76DFC7B68D3
:103A300001E04FF0FF3318460837BD4680BD00BF98
:103A40005804002080B584B000AF7860396000234E
:103A5000FB6012E07B681B7818463968FFF7CAFFE5
:103A60000346B3F1FF3F02D14FF0FF330AE0FB689A
:103A70000133FB607B6801337B607B681B78002B24
:103A8000E8D1FB6818461037BD4680BD80B582B0CE
:103A900000AF78607B68264A93420AD14FF4804099
:103AA0000121FDF71FFB4FF480400021FDF71AFBB9
:103AB0003AE07B681F4A93420AD14FF4003001215B
:103AC000FDF72EFB4FF400300021FDF729FB2BE022
:103AD0007B68194A93420AD14FF480200121FDF7F7
:103AE0001FFB4FF480200021FDF71AFB1CE07B68D0
:103AF000124A93420AD14FF400200121FDF710FB36
:103B00004FF400200021FDF70BFB0DE07B680C4A11
:103B1000934209D14FF480100121FDF701FB4FF4CE
:103B200080100021FDF7FCFA0837BD4680BD00BFBC
:103B3000003801400044004000480040004C004074
:103B40000050004080B58CB000AF78603960002331
:103B5000FB620023BB6200237B6200233B620023E5
:103B6000FB617B68FB617B681B8A9BB2FB62FA6A24
:103B70004CF6FF731340FB623B68DB881A46FB6A16
:103B80001343FB62FB6A9AB27B681A827B689B894B
:103B90009BB2FB62FA6A4EF6F3131340FB623B687A
:103BA0009A883B681B8913439AB23B685B8913432D
:103BB0009BB21A46FB6A1343FB62FB6A9AB27B68AC
:103BC0009A817B689B8A9BB2FB62FA6A4FF6FF433D
:103BD0001340FB623B689B891A46FB6A1343FB62F6
:103BE000FB6A9AB27B689A8207F108031846FDF7D0
:103BF0006DF9FB692E4A934202D17B69BB6201E0F9
:103C00003B69BB627B689B899BB29BB21BB2002B5A
:103C10000CDABA6A13469B0013449A001A443B68B4
:103C20001B685B00B2FBF3F37B620BE0BA6A1346DE
:103C30009B0013449A001A443B681B689B00B2FB2C
:103C4000F3F37B627B6A1B4AA2FB03235B091B0124
:103C5000FB62FB6A1B09642202FB03F37A6AD31A34
:103C60003B627B689B899BB29BB21BB2002B0CDA38
:103C70003B6ADB0032330F4AA2FB03235B0903F0EC
:103C80000703FA6A1343FB620BE03B6A1B01323302
:103C9000084AA2FB03235B0903F00F03FA6A1343EC
:103CA000FB62FB6A9AB27B681A813037BD4680BDE1
:103CB000003801401F85EB5180B483B000AF7860BD
:103CC0007B684FF416521A607B6800229A807B68EA
:103CD0000022DA807B6800221A817B680C225A81DC
:103CE0007B6800229A810C37BD465DF8047B7047E3
:103CF00080B485B000AF786039600023FB607B68DA
:103D00001B8A9BB2FB60FA684FF2FF031340FB6013
:103D10003B681A883B685B8813439AB23B689B8870
:103D200013439AB23B68DB8813439BB21A46FB6885
:103D30001343FB60FB689AB27B681A821437BD4656
:103D40005DF8047B704700BF80B483B000AF78603B
:103D50007B6800221A807B6800225A807B680022E0
:103D60009A807B680022DA800C37BD465DF8047BC0
:103D7000704700BF80B483B000AF78600B46FB7023
:103D8000FB78002B08D07B689B899BB243F40053DF
:103D90009AB27B689A8107E07B689B899BB223F487
:103DA00000539AB27B689A810C37BD465DF8047B5C
:103DB000704700BF80B487B000AF78600B467B804F
:103DC00013467B7000233B610023FB600023BB6034
:103DD00000237B617B687B617B88DBB25B09DBB2A4
:103DE0003B617B8803F01F03FB60FB68012202FA42
:103DF00003F3BB603B69012B03D17B690C337B610F
:103E000009E03B69022B03D17B6910337B6102E03F
:103E10007B6914337B617B78002B06D07B697A69E0
:103E20001168BA680A431A6006E07B697A6911680A
:103E3000BA68D2430A401A601C37BD465DF8047B5D
:103E4000704700BF80B483B000AF78600B467B80C2
:103E500013467B707B78002B08D07B689B8A9AB2D4
:103E60007B8813439AB27B689A8209E07B689B8ABD
:103E70009AB27B88DB439BB213409AB27B689A82EA
:103E80000C37BD465DF8047B704700BF80B483B03B
:103E900000AF78600B46FB707B681B8A9BB223F0F7
:103EA0000F039AB27B681A827B681B8A9AB2FB78EE
:103EB0009BB213439AB27B681A820C37BD465DF8F9
:103EC000047B704780B483B000AF78600B467B8082
:103ED0007B689B899BB223F400639AB27B689A81CA
:103EE0007B689B899AB27B8813439AB27B689A81DC
:103EF0000C37BD465DF8047B704700BF80B483B0CB
:103F000000AF78600B46FB70FB78002B08D07B6815
:103F10009B899BB243F002039AB27B689A8107E0C7
:103F20007B689B899BB223F002039AB27B689A81DB
:103F30000C37BD465DF8047B704700BF80B483B08A
:103F400000AF78600B467B807B681B8A9BB223F0B6
:103F500020039AB27B681A827B681B8A9AB27B889C
:103F600013439AB27B681A820C37BD465DF8047B16
:103F7000704700BF80B483B000AF78600B46FB7021
:103F8000FB78002B08D07B681B8A9BB243F48043EC
:103F90009AB27B681A8207E07B681B8A9BB223F483
:103FA00080439AB27B681A820C37BD465DF8047B69
:103FB000704700BF80B483B000AF78600B467B8051
:103FC0007B88C3F308039AB27B689A800C37BD469E
:103FD0005DF8047B704700BF80B483B000AF7860A9
:103FE0007B689B889BB2C3F308039BB218460C37CF
:103FF000BD465DF8047B704780B483B000AF786045
:104000007B689B899BB243F001039AB27B689A81DB
:104010000C37BD465DF8047B704700BF80B483B0A9
:1040200000AF78600B46FB707B681B8B9BB2DBB2EA
:104030009AB27B681A837B681B8B9AB2FB789BB21F
:104040001B029BB213439AB27B681A830C37BD469E
:104050005DF8047B704700BF80B483B000AF786028
:104060000B46FB707B681B8B9BB223F0FF039AB25D
:104070007B681A837B681B8B9AB2FB789BB21343D5
:104080009AB27B681A830C37BD465DF8047B704793
:1040900080B483B000AF78600B46FB70FB78002BD8
:1040A00008D07B689B8A9BB243F020039AB27B685E
:1040B0009A8207E07B689B8A9BB223F020039AB226
:1040C0007B689A820C37BD465DF8047B704700BF61
:1040D00080B483B000AF78600B46FB70FB78002B98
:1040E00008D07B689B8A9BB243F010039AB27B682E
:1040F0009A8207E07B689B8A9BB223F010039AB2F6
:104100007B689A820C37BD465DF8047B704700BF20
:1041100080B483B000AF78600B46FB70FB78002B57
:1041200008D07B689B8A9BB243F008039AB27B68F5
:104130009A8207E07B689B8A9BB223F008039AB2BD
:104140007B689A820C37BD465DF8047B704700BFE0
:1041500080B483B000AF78600B46FB70FB78002B17
:104160000AD07B689B899BB26FEA43436FEA534353
:104170009AB27B689A8107E07B689B899BB2C3F304
:104180000E039AB27B689A810C37BD465DF8047BBA
:10419000704700BF80B483B000AF78600B46FB70FF
:1041A000FB78002B08D07B689B8A9BB243F40063AA
:1041B0009AB27B689A8207E07B689B8A9BB223F461
:1041C00000639AB27B689A820C37BD465DF8047B27
:1041D000704700BF80B483B000AF78600B467B802F
:1041E0007B689B8A9BB223F004039AB27B689A8215
:1041F0007B689B8A9AB27B8813439AB27B689A82C7
:104200000C37BD465DF8047B704700BF80B483B0B7
:1042100000AF78600B46FB70FB78002B08D07B6802
:104220009B8A9BB243F002039AB27B689A8207E0B2
:104230007B689B8A9BB223F002039AB27B689A82C6
:104240000C37BD465DF8047B704700BF80B485B075
:1042500000AF78600B467B800023FB737B681B8874
:104260009AB27B8813409BB2002B02D00123FB73D0
:1042700001E00023FB73FB7B18461437BD465DF855
:10428000047B704780B483B000AF78600B467B80BE
:104290007B88DB439AB27B681A800C37BD465DF899
:1042A000047B704780B487B000AF78600B467B809A
:1042B0000023FB6000237B610023BB600023FB74B1
:1042C0007B88DBB25B09DBB2BB607B8803F01F033A
:1042D0007B617B69012202FA03F37B61BB68012BDE
:1042E00007D17B689B899BB21A467B6913407B612F
:1042F00011E0BB68022B07D17B681B8A9BB21A4670
:104300007B6913407B6106E07B689B8A9BB21A46FF
:104310007B6913407B617B881B0A9BB2FB60FB6857
:10432000012202FA03F3FB607B681B889BB21A46EA
:10433000FB681340FB607B69002B05D0FB68002BFA
:1043400002D00123FB7401E00023FB74FB7C1846C0
:104350001C37BD465DF8047B704700BF80B485B054
:1043600000AF78600B467B800023FB810023BB817C
:104370007B881B0AFB81FB89012202FA03F3BB81C4
:10438000BB89DB439AB27B681A801437BD465DF85F
:10439000047B7047ABBE01E000207047002A00D0CC
:1043A00010600120704706980188034A914202D1AB
:1043B000043006907047FEE7ABBE000080B483B0C7
:1043C00000AF0346FB71084997F907305B09FA799A
:1043D00002F01F02012000FA02F241F823200C37FC
:1043E000BD465DF8047B704700E100E080B483B017
:1043F00000AF03463960FB7197F90730002B0BDAE9
:104400000D49FB7903F00F03043B3A68D2B2120165
:10441000D2B20B441A7609E0084997F907303A6896
:10442000D2B21201D2B20B4483F800230C37BD463E
:104430005DF8047B704700BF00ED00E000E100E0A4
:1044400080B586B000AF00233B610023FB600023F2
:104450007B61FBF789FE4FF41650FBF777FF4FF4B3
:104460001650FBF731FF00F057F900F03DF95248C4
:10447000FEF730FC4FF08040FEF7CCFE0120FEF747
:1044800031FEFEF723FF4D48FEF716FE0120002106
:10449000FEF77CFE4A48FEF70FFE4A48FBF7A0FEF7
:1044A000494B1B889BB203F02003002B00F0828055
:1044B000454B9B889BB2C3F30803FB60FB68D9B2F2
:1044C0003A1D7B6913440A461A707B6901337B618C
:1044D0007B69082B6ED1FEF7F9FE3C48FEF7ECFD38
:1044E00001200321FEF752FE3B791846FEF7C2FD7C
:1044F0007B791846FEF7BEFDBB791846FEF7BAFD7C
:10450000FB791846FEF7B6FD3B7A1846FEF7B2FD7A
:104510007B7A1846FEF7AEFDBB7A1846FEF7AAFD79
:10452000FB7A1846FEF7A6FD2948FBF7B3FE29489B
:10453000FBF756FE2848FBF7ADFE2648FBF750FE7A
:104540003B79184600F0B4F87B79184600F0B0F8D3
:10455000BB79184600F0ACF8FB79184600F0A8F8D3
:104560003B7A184600F0A4F87B7A184600F0A0F8D1
:10457000BB7A184600F09CF8FB7A184600F098F8D1
:104580001648FBF787FE1348FBF72AFE1448FBF793
:1045900081FE1048FBF724FEFEF798FE0748FEF761
:1045A0008BFD01200021FEF7F1FD0548FEF784FD9B
:1045B00000237B6174E700BF0054004038490008C5
:1045C0004C49000840420F00003801406049000893
:1045D00074490008C0C62D00A0490008B049000871
:1045E000B449000880B500AF00BF0C4B1B889BB2DC
:1045F00003F02003002BF8D007E0084B9B889BB208
:10460000C3F30803184600F021F8044B1B889BB243
:1046100003F02003002BF0D180BD00BF0044004018
:1046200080B400AF00BF084B1B889BB203F020038F
:10463000002BF8D0044B9B889BB2C3F308031846A9
:10464000BD465DF8047B70470038014080B483B0FC
:1046500000AF786000BF0A4B1B889BB203F0800359
:10466000002BF8D0064A7B689BB2C3F308039BB2C9
:1046700093807B6818460C37BD465DF8047B704715
:104680000038014080B400AF00BF084B1B889BB2CC
:1046900003F02003002BF8D0044B9B889BB2C3F39C
:1046A00008031846BD465DF8047B7047004400408F
:1046B00080B483B000AF786000BF0A4B1B889BB208
:1046C00003F08003002BF8D0064A7B689BB2C3F34B
:1046D00008039BB293807B6818460C37BD465DF893
:1046E000047B70470044004080B582B000AF1020CA
:1046F0000121FCF7BBFC1023FB710323BB714FF4BA
:104700000053BB803B1D03481946FBF75FFF08378A
:10471000BD4680BD0010014080B500AF4FF4407031
:10472000FCF7C2FF1F200021FFF760FE1F20FFF7EC
:1047300045FE20200121FFF759FE2020FFF73EFE15
:1047400021200021FFF752FE2120FFF737FE222013
:104750000121FFF74BFE2220FFF730FE80BD00BF96
:1047600070B4840746D0541E002A41D0CDB203460F
:1047700002E0621EE4B3144603F8015B9A07F8D125
:10478000032C2ED9CDB245EA05250F2C45EA054567
:1047900019D9264603F11002103E0F2E42F8105C84
:1047A00042F80C5C42F8085C42F8045C02F110022A
:1047B000F2D8A4F1100222F00F0204F00F0410321C
:1047C000032C13440DD91E462246043A032A46F808
:1047D000045BFAD8221F22F003020432134404F0CF
:1047E00003042CB1C9B21C4403F8011BA342FBD142
:1047F00070BC704714460346C2E700BF024B13B1BA
:10480000024800F005B87047000000001D4800088D
:10481000014600200246034600F016B838B5084BA2
:10482000084DED1AAC1018BFED1805D0013C55F835
:10483000043D9847002CF9D1BDE8384000F05CB841
:1048400064040020680400202DE9F047254C06464A
:1048500025688846D5F8484192469946C4B36068B1
:104860001F2817DC411C76B104EB8003C3F888A035
:10487000D4F88851012282401543022EC4F8885191
:10488000C3F808911ED0831C6160002044F8238087
:10489000BDE8F087144B03B34FF4C870AFF300804A
:1048A0000446D0B1D5F84831002784E8880038465E
:1048B000C5F848410121C4F88871C4F88C71002EF4
:1048C000E1D0D1E7D4F88C311A43C4F88C21DAE76F
:1048D00005F5A674C5F84841C1E74FF0FF30BDE8C3
:1048E000F08700BFC849000800000000F8B500BF0D
:1048F000F8BC08BC9E467047F8B500BFF8BC08BCC1
:104900009E467047000A1F1F0E040000000A151182
:104910000A040000737464696F2E633A20696E6341
:104920007265617365204D41585F535452494E473B
:104930005F53495A450A0D002053696C61686B61E9
:104940006E20756E74756B2000000000746170201D
:104950006B6172747520646973616E6100000000A0
:104960002053656C616D617420646174616E6720B1
:104970000000000041542B43495053544152543DD0
:1049800022544350222C223139322E3136382E34E3
:10499000332E3533222C35303030350D0A000000EF
:1049A00041542B43495053454E443D380D0A0000B5
:1049B0000D0A000041542B434950434C4F53450DC1
:0C49C0000A00000043000000300000204E
:1049CC0000000000010203040102030406070809A9
:1049DC000204060800A24A040000000000000000C7
:1049EC000102030406070809080402010000000084
:1049FC00000000001C03002084030020EC030020B6
:104A0C00000000000000000000000000000000009A
:104A1C00000000000000000000000000000000008A
:104A2C0000000000C4490008000000000000000065
:104A3C00000000000000000000000000000000006A
:104A4C00000000000000000000000000000000005A
:104A5C00000000000000000000000000000000004A
:104A6C00000000000000000000000000000000003A
:104A7C00000000000000000000000000000000002A
:104A8C00000000000000000000000000000000001A
:104A9C000000000000000000010000000000000009
:104AAC000E33CDAB34126DE6ECDE05000B000000CE
:104ABC0000000000000000000000000000000000EA
:104ACC0000000000000000000000000000000000DA
:104ADC0000000000000000000000000000000000CA
:104AEC0000000000000000000000000000000000BA
:104E1C00000000000000000030000020FD470008EA
:0C4E2C00310100080D010008000000002A
:0400000508000000EF
:00000001FF
